:020000040800F2
:1000000018070020051700084503000847030008EB
:100010004B0300084F0300085303000800000000D2
:10002000000000000000000000000000570300086E
:1000300059030008000000005B0300085D0300088E
:100040001F1700081F1700081F1700081F170008B8
:100050001F1700081F1700081F1700081F170008A8
:100060001F1700081F1700081F1700081F17000898
:100070001F1700081F1700081F1700081F17000888
:100080001F1700081F1700081F1700081F17000878
:100090001F1700081F1700081F1700081F17000868
:1000A0001F1700081F1700081F1700081F17000858
:1000B0001F170008071300081F1700081F17000864
:1000C0001F1700081F1700081F1700081F17000838
:1000D0001F1700081F1700081F170008C315000886
:1000E0001F1700081F1700081F1700081F17000818
:1000F0001F1700081F1700081F1700081F17000808
:100100001F1700081F1700081F1700081F170008F7
:100110001F1700081F1700081F1700081F170008E7
:100120001F1700081F1700081F1700081F170008D7
:1001300000F002F800F03AF80AA090E8000C8244BF
:100140008344AAF10107DA4501D100F02FF8AFF29C
:10015000090EBAE80F0013F0010F18BFFB1A43F0A5
:10016000010318478C3E0000AC3E0000103A24BF4B
:1001700078C878C1FAD8520724BF30C830C144BF0C
:1001800004680C607047000000230024002500264E
:10019000103A28BF78C1FBD8520728BF30C148BFEA
:1001A0000B6070471FB51FBD10B510BD03F042F9BD
:1001B0001146FFF7F7FF00F009F803F060F903B408
:1001C000FFF7F2FF03BC01F01BF900008AB000202A
:1001D000089009900690079000250026059004904D
:1001E00000240390012702900190009001F09EF8F6
:1001F0004FF4A06002F02AF84FF4165001F088F98D
:1002000032214A4801F032FA3221484801F006FA18
:1002100000F04CFD00F020FD2321402001F046F8C5
:1002200001204349086080E0404890F831000128EF
:1002300047D100203D4981F8310006AA08A93B4872
:1002400000F06AFA0446214602A800F0CEFC2046DF
:1002500000F0B0FCFF2834D1089830B9099820B9D3
:1002600006980890079809902BE0069D079E4FF08E
:100270003332304B0699089800F092FB05904FF00E
:1002800033322C4B0799099800F0D0FB0490059865
:1002900000280BDD059803F0C7FD8146264903F0D1
:1002A000DBFD804603F0A4FD05900AE0059803F00D
:1002B000BBFD8146214903F0CFFD804603F098FD48
:1002C00005901F48007801282FD100201C49087094
:1002D00003A800F08FFF059890B9049880B901A891
:1002E00000F00BFF6A4601A902A800F035FF00F0FC
:1002F0003FFF07466A4603A9384600F0AAFD14E00E
:1003000003AA04A905A800F04DFE4FF03332094BB3
:100310002846059900F0A0FB08904FF03332054BBA
:100320003046049900F024FC09907DE74C00002041
:100330009801214233331040FEB07F3F9927803F20
:1003400000000020704700BFFEE700BFFEE700BFCF
:10035000FEE700BFFEE77047704770477047000038
:100360000CB50020019000906C48006840F480308B
:100370006A49086000BF6948006800F400300090D6
:100380000198401C0190009818B90198B0F5A06F31
:10039000F1D16248006800F4003010B101200090F3
:1003A00001E0002000900098012843D15C480068DB
:1003B00040F010005A4908600846006820F0030029
:1003C00008600846006840F0020008605348406832
:1003D000524948600846406848600846406840F412
:1003E000806048600846406820F47C1048600846F9
:1003F000406840F4E81048600846006840F08070AB
:10040000086000BF4548006800F000700028F9D07F
:100410004248406820F00300404948600846406870
:1004200040F00200486000BF3C48406800F00C000B
:100430000828F9D10CBD10B5FFF792FF10BD10B51B
:100440003648006840F001003449086008464068BA
:10045000344908403149486008460068324908403C
:100460002E4908600846006820F48020086008468D
:10047000406820F4FE0048604FF41F008860FFF7DA
:10048000DAFF4FF000602949086010BD10B5002167
:1004900000200022214B5B6803F00C0121B10429EC
:1004A00006D0082928D107E0214B224C236027E001
:1004B0001F4B204C236023E0184B5B6803F4701043
:1004C000164B5B6803F48032022303EB904022B9A1
:1004D000194B4343174C23600DE0104B5B6803F44A
:1004E000003323B1144B4343124C236003E0104B01
:1004F0004343104C236003E00D4B0E4C236000BFC0
:1005000000BF064B5B68C3F303130C4CE15C094B63
:100510001B68CB40074C236010BD00000010024058
:10052000002002400000FFF8FFFFF6FE08ED00E0AB
:1005300000127A000400002000093D00080000209D
:1005400010B501464A78303A48F6A0435A438B78B2
:10055000303BC3EB4314C4EB032302EB0313CA7811
:10056000303AC2EB021202EB820203EBC2030A79B9
:10057000303AC2EB021203EB82034A79303A02EBC3
:10058000820203EB42028B791A44A2F130000A780E
:100590002B2A01D1F84A10440A782D2A01D1F64AB3
:1005A000101A10BD10B501460A78303AF34B534388
:1005B0004A78303A40F62F54624303EB02138A78AC
:1005C000303A40F26544624303EBC203CA78303AE2
:1005D000C2EB4214C4EB022203EB82030A79303AE5
:1005E000C2EB021202EB820203EB42034A79303A79
:1005F000C2EB0212981810BD30B5DF4CA04203DBED
:1006000003461B1B2B240C70DB4CA04203DA034671
:10061000E31A2D240C704FF4616493FBF4F20A2466
:1006200092FBF4F430344C700A2492FBF4F504FB92
:10063000152430348C703A24CC704FF4616493FBF1
:10064000F4F504FB15323C2492FBF4F20A2492FBED
:10065000F4F430340C710A2492FBF4F504FB1524F5
:1006600030344C713A248C713C2493FBF4F504FB38
:1006700015320A2492FBF4F43034CC710A2492FB34
:10068000F4F504FB152430340C7223244C7230BD75
:1006900010B502464DF2F02392FBF3F00A2390FBD3
:1006A000F3F330330B700A2390FBF3F403FB1403D2
:1006B00030334B703A238B704DF2F02392FBF3F4FE
:1006C00003FB14204FF4617390FBF3F00A2390FBBB
:1006D000F3F33033CB700A2390FBF3F403FB1403E2
:1006E00030330B713A234B714FF4617392FBF3F487
:1006F00003FB14200F2390FBF3F00A2390FBF3F38A
:1007000030338B710A2390FBF3F403FB1403303373
:10071000CB7123230B7210BD2DE9F04188B0064642
:100720000F4615460024A04695480078FF2802D1C0
:1007300000209349087007E0601CC4B22D2C03DD33
:10074000002008B0BDE8F081305D3A28F4D14FF0C8
:10075000000809E0305D03A901F80800601CC4B27C
:1007600008F1010000F0FF08B8F1130FF2DB3221AD
:10077000304602F012FE9DF80D00472819D19DF871
:100780000E00522807D17F493868FFF781FF092101
:100790007C4800F096FF9DF80E00442807D1794967
:1007A0007868FFF729FF0A21764800F08AFF0120C8
:1007B000C7E79DF80D00512828D19DF81100722837
:1007C00024D19DF813008DF800009DF814008DF8D9
:1007D00001009DF816008DF802009DF817008DF8B5
:1007E00003009DF819008DF804009DF81A008DF89B
:1007F000050031208DF80C00012103A800F061FFF5
:100800006846FFF7CFFE286003209AE79DF80D00A9
:10081000512817D19DF80E00652801D1452090E799
:100820009DF80E00772801D157208AE79DF80E0029
:10083000732801D1532084E79DF80E006E2801D162
:100840004E207EE79DF80D00532828D19DF80E001C
:10085000722824D19DF80F008DF800009DF810003B
:100860008DF801009DF812008DF802009DF813002C
:100870008DF803009DF815008DF804009DF8160012
:100880008DF8050031208DF80C00012103A800F03F
:1008900018FF6846FFF786FE2860032051E79DF8A1
:1008A0000D0053284DD19DF80E00642849D19DF8C4
:1008B0000F0020281CD19DF810008DF800009DF835
:1008C00011008DF801009DF812008DF802009DF8CE
:1008D00014008DF803009DF815008DF804009DF8B4
:1008E00017008DF805009DF818008DF806001BE034
:1008F0009DF80F008DF800009DF810008DF80100A4
:100900009DF811008DF802009DF813008DF803008A
:100910009DF814008DF804009DF816008DF8050070
:100920009DF817008DF8060031208DF80C0001218C
:1009300003A800F0C6FE6846FFF702FE68600420C8
:10094000FFE69DF80D004D2828D19DF80E00532894
:1009500008D130208DF80C00012103A800F0B1FE71
:100960000120EEE69DF80E00652800D1E9E69DF82D
:100970000E00772808D1E4E6A0F10400603D0800ED
:10098000180000207E0000209DF80E00732800D182
:10099000D7E69DF80E006E2800D1D2E60020D0E602
:1009A0002DE9FC470446894615461E46A4EB09007E
:1009B000002801DB014600E04142A34A914225DDC7
:1009C0004C4511DD51004944081B02F0A0FF2A46A6
:1009D0003346CDE9000102F013FE074602F068FF3E
:1009E00082465046BDE8FC879849A9EB0101081BE7
:1009F00002F08DFF07462A46334602F001FECDE99C
:100A0000000102F055FF82465046EBE7A9EB0400D7
:100A100002F07DFF2A463346CDE9000102F0F0FDE9
:100A2000074602F045FF82465046DBE72DE9F84FC6
:100A300082468B4614461D46ABEB0A0002F067FF68
:100A4000064622462B4602F0DBFD804602F030FFD0
:100A500000900098BDE8F88F2DE9F04786B0064673
:100A6000894614461D46484602F051FF22462B4651
:100A7000CDE9000102F09EFF07468846304602F0AD
:100A800046FF3A464346CDE9020103F0C7F800228B
:100A90001346CDE9040102F051FF18D2484602F096
:100AA00036FF22462B46CDE9000102F083FFCDE957
:100AB00002016648304402F02AFF0746DDE90223BE
:100AC00003F0ACF8CDE9040102F0F2FE824648469C
:100AD00002F01DFF22462B46CDE9000102F06AFF1D
:100AE00007468846304602F012FF3A464346CDE9B3
:100AF000020103F093F80022554BCDE9040103F005
:100B000057F819D2484602F002FF074622462B4604
:100B100002F050FFCDE902014C49701A02F0F7FED5
:100B2000CDE90001DDE9022303F078F8CDE9040105
:100B300002F0BEFE824617E0484602F0E8FE074695
:100B400022462B4602F036FFCDE90201304602F084
:100B5000DEFECDE90001DDE9022303F05FF8CDE917
:100B6000040102F0A5FE8246504606B0BDE8F087BB
:100B70002DE9F04F85B083468A4614461D465046FF
:100B800002F0C5FE804622462B4602F013FFCDE957
:100B90000201584602F0BBFECDE90001DDE9022367
:100BA00003F03CF8064602F083FE0490049805B07A
:100BB000BDE8F08F014627480078FF2802D10020C9
:100BC000244A1070032905D12248007840F0F00033
:100BD000204A1070042905D11E48007840F00F000B
:100BE0001C4A10701B480078704765291CD008DC2F
:100BF00045290DD04E2914D053290FD057291FD184
:100C000009E06E2919D0732914D0772918D10EE084
:100C10000022027015E00022027012E000224270F1
:100C20000FE0002242700CE00122027009E0FF2276
:100C3000027006E0FF22427003E00122427000E0F1
:100C400000BF00BF7047000040E3090080C61300EA
:100C500080C633411900002008B501210C2001F0A5
:100C60008DF80121084601F089F80121FE4800F0C5
:100C70009AFE49F66470ADF8000003208DF802007A
:100C800010208DF803006946F84800F0BBFD4EF2D5
:100C9000F930ADF8000003208DF8020010208DF827
:100CA00003006946F24800F0ADFD08BD08B501211A
:100CB0000C2001F063F80121EB4800F074FE9B204A
:100CC000ADF8000048208DF803006946E74800F0C1
:100CD00099FD0220ADF8000048208DF80300694618
:100CE000E34800F08FFD08BD04281FD004DC012874
:100CF00007D002283CD10EE0082823D0102837D195
:100D00002BE00021DB4A1160DB4AC2F8A811D94A66
:100D1000083A116036E00121D64A11600021D64A16
:100D2000C2F8A811D34A083A11602BE00021D14A39
:100D300011600121D04AC2F8A8110021CD4A083A19
:100D400011601FE00121CB4A1160CB4AC2F8A81103
:100D50000021C84A083A116014E00021C54A116018
:100D6000C54AC2F8A8110121C24A083A116009E037
:100D70000121C04A1160C04AC2F8A811BD4A083A10
:100D8000116000BF00BF704704281FD004DC012899
:100D900007D002283CD10EE0082823D0102837D1F4
:100DA0002BE00021B54A1160B54AC2F89C11B34A44
:100DB000083A116036E00121B04A11600021B04AC2
:100DC000C2F89C11AD4A083A11602BE00021AB4AF1
:100DD00011600121AA4AC2F89C110021A74A083AD1
:100DE00011601FE00121A54A1160A54AC2F89C11BB
:100DF0000021A24A083A116014E000219F4A1160C4
:100E00009F4AC2F89C1101219C4A083A116009E0EE
:100E100001219A4A11609A4AC2F89C11974A083AED
:100E2000116000BF00BF704710B5944B143B1860B1
:100E3000934BC3F8B811162201E0531EDAB2002A10
:100E4000FBDC00238D4C143C23608D4CC4F8B8317E
:100E500010BD2DE9F04F04460D4690464FF0000AB4
:100E6000D34688480088401C864908808648008808
:100E7000401C8549088098F90000B0F1FF3F12D06E
:100E800010B1012837D120E0287808B9012000E00E
:100E9000002078491031086000207949C1F8A40188
:100EA00042F25D0628E0287808B9012000E0002021
:100EB00070491031086000207149C1F8A401601C1C
:100EC00042F25D0191FBF0F616E028786949103195
:100ED000086000206A49C1F8A401601E1FFA80F969
:100EE000B9F1000F01D1694E04E0601E42F25D01CC
:100EF00091FBF0F600E000BF00BF98F90100B0F1EF
:100F0000FF3F1AD010B1012828D109E0012059492A
:100F1000091D086042F25D0700205B4908801EE061
:100F2000687856491431086000205349C1F8B0016F
:100F300042F25D0090FBF4F711E0687808B90120F7
:100F400000E000204D491431086000204A49C1F8F2
:100F5000B00142F25D0090FBF4F700E000BF00BF7B
:100F600048480088B04204D901204649088082469A
:100F700001E04FF0000A44480088B84204D901203B
:100F800041490880834601E04FF0000BBAF1010FA0
:100F900002D0BBF1010F03D159465046FFF744FF81
:100FA000BDE8F08F2DE9F04704460D4616464FF098
:100FB0000009CA4636480088401C35490880354833
:100FC0000088401C3349088000202C49091D086016
:100FD000206850B9307808B9012000E00020254988
:100FE0001031086042F25D0711E02068002805DD3D
:100FF00030782049103108600A2708E0307808B9B5
:10100000012000E000201B49103108600A272868F1
:1010100020B901201749091D08601BE02868002835
:101020000ADD707815491431086000201249C1F8B2
:10103000B0014FF00A080DE0707808B9012000E017
:1010400000200E491431086000200B49C1F8B0019E
:101050004FF00A080E480088B84229DD01200C49EB
:1010600008808146206817E0000230000008014037
:10107000000C0140AC01214200002142A08121422C
:10108000008021421C0000201E000020FFFF0F00F6
:101090002000002022000020002802DD2068401EE1
:1010A00020602068002805DA2068401C206001E0EC
:1010B0004FF0000976480088404510DD0120744952
:1010C000088082462868002802DD2868401E2860C3
:1010D0002868002805DA2868401C286001E04FF0E5
:1010E000000AB9F1010F02D0BAF1010F03D1514644
:1010F0004846FFF799FEBDE8F0876649096809B9D7
:10110000FF21017063491C39096809B90121017087
:1011100060490968012906D15E491C39096801291D
:1011200001D1002101705B491039096809B9012119
:10113000417058491839096809B9FF21417055496A
:1011400010390968012906D152491839096801295D
:1011500001D100214170704710B503780C78234409
:101160005BB2137043784C7823445BB2537010BD6C
:1011700049480068A8B949480068401C47490860C8
:1011800008460068B0F5FA6F0ED145480078401C5B
:101190004349087008460078052805DB01200870DF
:1011A00002E000203D4908603D480078012806D053
:1011B00002280AD003280ED0042819D111E00020FB
:1011C00035497C31086001207047002032497C316C
:1011D00008600A20F8E701202F497C31086064206C
:1011E000F2E701202C497C3108604FF44870EBE7AE
:1011F0000120E9E727490C390968A9B92949096893
:10120000491C284A116011460968B1F5FA6F0ED1E0
:1012100025490978491C244A117011460978052985
:1012200005DB0121117002E000211E4A11601E49F8
:101230000978012906D002290CD0032911D00429EC
:101240001ED115E00021134A6C321160017001219A
:1012500041701AE000210F4A6C3211600170417038
:1012600013E001210B4A6C321160017041700CE0F7
:101270000121084A6C32116001700021417004E0C4
:10128000002101700121417000BF00BF70470000C4
:10129000220000201C012142048121422400002060
:1012A000280000202C000020300000207FB50546DB
:1012B0000C460121022000F06EFDADF80850ADF89B
:1012C00004400020ADF80A00ADF8060001A9154859
:1012D00001F0FEF801221146124801F070FC1D20B9
:1012E0008DF8000000208DF8010003208DF8020029
:1012F00001208DF80300684600F0ADFF0121094888
:1013000001F042FC7FBD10B50121064801F005FF48
:1013100030B10121034801F011FF0120024908709A
:1013200010BD0000000400400000002010B56FF068
:10133000040000F0DAFF2E4800682E49B0FBF1F0FF
:101340002D4908700846007800EB4001C1EBC01041
:101350004FF6FF7101EAC0002849088010BD014620
:10136000254A12784A434FF0E0235A6100229A61DD
:101370001A46126942F001021A6100BF4FF0E022E2
:10138000106900F001021AB100F48032002AF5D091
:101390004FF0E022126922F001024FF0E0231A61BF
:1013A00000229A6170470146144A12884A434FF05E
:1013B000E0235A6100229A611A46126942F0010242
:1013C0001A6100BF4FF0E022106900F001021AB16B
:1013D00000F48032002AF5D04FF0E022126922F0AA
:1013E00001024FF0E0231A6100229A617047000069
:1013F0000400002000127A00320000203400002097
:10140000014600BF704700BF7E4A128802F04002CA
:10141000002AF9D0C2B27B4B1B1D1A80704710B551
:1014200086B00446012144F2040000F0A7FC4FF40A
:101430000070ADF8140003208DF8160018208DF808
:10144000170005A9704800F0DDF94FF48060ADF891
:10145000140004208DF8170005A96B4800F0D2F99C
:1014600025208DF8000003208DF801008DF8020082
:1014700001208DF80300684600F0EDFE0194002085
:10148000ADF80800ADF80A00ADF80C00ADF810009A
:101490000C20ADF80E0001A95C4800F016FD0122F9
:1014A00040F22441594800F0A8FD0122402157484C
:1014B00000F0C8FD0121554800F093FD06B010BDB5
:1014C00030B58BB005460C460121084600F049FCBA
:1014D0004F4801F037FE4B48001D00900195002059
:1014E00002900394049080200590002006900790BD
:1014F00008904FF48050099000200A9069464448B3
:1015000001F0C2FE0121424801F0E9FE0BB030BDFE
:1015100010B586B004460121880400F03CFC01218E
:10152000082000F02BFC4FF48060ADF8140003207D
:101530008DF8160018208DF8170005A9354800F021
:1015400061F94FF40060ADF8140004208DF8170025
:1015500005A9304800F056F927208DF80000032037
:101560008DF801008DF8020001208DF80300684617
:1015700000F071FE01940020ADF80800ADF80A00FB
:10158000ADF80C00ADF810000C20ADF80E0001A96C
:101590001C4800F09AFC012240F22441194800F056
:1015A0002CFD01224021174800F04CFD0122802132
:1015B000144800F047FD0121124800F012FD06B06A
:1015C00010BD10B540F224410E4800F0FBFDC0B143
:1015D0000C480088104981F831000A48001D008835
:1015E00081F83100012081F831000021084801F024
:1015F00076FE3221064801F087FE0121044801F001
:101600006EFE10BD00480040000801400038014057
:1016100030000240000C01404C00002070B505462F
:101620000C460121084600F09CFB334801F08AFD7E
:101630003248334908600846456000208860084603
:10164000C460002008618020486100208861C86172
:1016500008624FF48050486200208862264801F0FA
:1016600013FE0121244801F03AFE70BD70B5054615
:101670000C460121084600F074FB1F48143801F0A5
:1016800061FD1E481E4908600846456010208860BC
:101690000846C460002008618020486100208861FD
:1016A000C86108624FF48050486200208862124886
:1016B000143801F0E9FD01210F48143801F00FFE44
:1016C00070BD70B504460D460D48446001460A4899
:1016D000143801F0D9FD00210748143801F0FFFD4E
:1016E00029460548143801F00FFE0121024814383C
:1016F00001F0F5FD70BD00003000024004480040DC
:10170000880000200948804709480047FEE7FEE7B7
:10171000FEE7FEE7FEE7FEE7FEE7FEE7FEE7FEE7A1
:1017200004480549054A064B704700003F0400087D
:1017300031010008180100201807002018030020BC
:101740001803002010B50446CC48844208D101217A
:10175000042000F02DFB0021042000F029FB46E0CE
:10176000C748844208D10121082000F021FB002154
:10177000082000F01DFB3AE0C248844208D1012154
:10178000102000F015FB0021102000F011FB2EE0CE
:10179000BD48844208D10121202000F009FB00212E
:1017A000202000F005FB22E0B848844208D1012146
:1017B000402000F0FDFA0021402000F0F9FA16E088
:1017C000B348844208D10121802000F0F1FA0021C1
:1017D000802000F0EDFA0AE0AE48844207D10121F2
:1017E000801500F0E5FA0021A01500F0E1FA10BD27
:1017F00010B50121084600F0DBFA0021012000F0BD
:10180000D7FA10BD2DE9F041024600250026002040
:1018100000230024002791F803C00CF00F0591F875
:1018200003C00CF0100CBCF1000F03D091F802C003
:101830004CEA050591F800C0BCF1000F31D01468E6
:1018400000202BE04FF0010C0CFA00F3B1F800C0BF
:101850000CEA03069E4220D183004FF00F0C0CFAD5
:1018600003F7BC4305FA03FC4CEA040491F803C0F7
:10187000BCF1280F06D14FF0010C0CFA00FCC2F8A5
:1018800014C00AE091F803C0BCF1480F05D14FF035
:10189000010C0CFA00FCC2F810C0401C0828D1D37F
:1018A0001460B1F800C0BCF1FF0F34DD54680020B3
:1018B0002EE000F1080C4FF0010808FA0CF3B1F823
:1018C00000C00CEA03069E4221D183004FF00F0CAA
:1018D0000CFA03F7BC4305FA03FC4CEA040491F844
:1018E00003C0BCF1280F05D100F1080C08FA0CF870
:1018F000C2F8148091F803C0BCF1480F07D100F181
:10190000080C4FF0010808FA0CF8C2F81080401CCF
:101910000828CED35460BDE8F0814FF6FF710180F6
:10192000022181700421C170704702460020936833
:101930000B400BB1012000E0002070470146886891
:1019400080B2704702460020D3680B400BB10120E3
:1019500000E0002070470146C86880B2704701610E
:101960007047416170470AB1016100E04161704711
:10197000C16070474FF480320A43826181618261A5
:1019800082698269704702460020434B18684FF60F
:101990008073184040EA021008433F4B18607047BC
:1019A0003E49C8617047F0B50A4600230024002173
:1019B000002500F00046B6F1004F02D1364EF16925
:1019C00001E0354E7168C0F3034583B200F4401660
:1019D000B6F5401F08D121F070612F4E766826F0D1
:1019E00070662D4F7E6012E000F48016B6F5801F01
:1019F00006D1032606FA05F4A14341F0706106E022
:101A0000460D360103FA06F6B14341F0706122B18A
:101A1000460D360103FA06F6314300F00046B6F1F2
:101A2000004F02D11C4EF16101E01B4E7160F0BD10
:101A300030B500228B071C0F0F2303FA04F2164B5C
:101A400008338C1053F824309343134C08348D1012
:101A500044F8253023468C1053F824308C07240F8B
:101A600000FA04F423430C4C08348D1044F825305C
:101A700030BD0A49DC3108607047000000080140B1
:101A8000000C01400010014000140140001801400A
:101A9000001C0140002001400000014000002042E5
:101AA000DF48006840F00100DD49086008464068F2
:101AB000DC490840DA49486008460068DA490840CD
:101AC000D74908600846006820F48020086008466E
:101AD000406820F4FE0048604FF41F0088607047A3
:101AE000CF49096821F48031CD4A11601146096857
:101AF00021F480211160B0F5803F03D0B0F5802F34
:101B00000ED106E0C649096841F48031C44A11602B
:101B100007E0C349096841F4A021C14A116000E00F
:101B200000BF00BF704710B501460022002300200F
:101B30004A11012A02D1BA4C236806E0022A02D1D6
:101B4000B74C236A01E0B64C636A01F01F0201241E
:101B500094401C400CB1012000E0002010BD38B5BD
:101B6000002000900024002500BF3120FFF7DBFF9C
:101B700005460098401C00900098B0F5A06F01D079
:101B8000002DF2D03120FFF7CEFF08B1012400E094
:101B90000024204638BD01460020A14A106820F0EC
:101BA000F80040EAC10010607047A0490860704723
:101BB000024600209A4B586820F47C1042EA010348
:101BC0001843974B5860704798490866704701461C
:101BD0000020934A506820F003000843506070478B
:101BE0008F48406800F00C007047014600208C4A86
:101BF000506820F0F0000843506070470146002014
:101C0000874A506820F4E0600843506070470146FE
:101C10000020834A506820F4605040EAC1005060C0
:101C2000704729B17E4A527A02437D4B5A7204E0D2
:101C30007B4A527A82437A4B5A7270477B49D83139
:101C40000860704701460020754A506820F4404003
:101C50000843506070470021714A20321170704A69
:101C600082F82010012802D004280AD104E00121C2
:101C70006B4A2032117005E00521694A203211704B
:101C800000E000BF00BF70476949086070476449C1
:101C9000096A0143624A1162704765494439086024
:101CA000704730B500210022002400235C4D6D6890
:101CB00005F00C0121B1042905D0082923D105E044
:101CC0005C4D056022E05B4D05601FE0544D6D6882
:101CD00005F47012524D6D6805F48034022505EB51
:101CE00092421CB9544D554305600BE04C4D6D6854
:101CF00005F400351DB1504D5543056002E04D4DD2
:101D00005543056002E04B4D056000BF00BF444DE8
:101D10006D6805F0F0010909484D6B5C0568DD4010
:101D200045603F4D6D6805F4E061090A434D6B5C09
:101D30004568DD4085603A4D6D6805F46051C90A1B
:101D40003E4D6B5C4568DD40C560354D6D6805F402
:101D50004041890B3A4D6B5CC568B5FBF3F50561F5
:101D600030BD29B12E4A526902432D4B5A6104E01D
:101D70002B4A526982432A4B5A61704729B1284A3B
:101D800092690243264B9A6104E0254A9269824394
:101D9000234B9A61704729B1214AD2690243204BF3
:101DA000DA6104E01E4AD26982431D4BDA61704752
:101DB00029B11B4AD2680243194BDA6004E0184A81
:101DC000D2688243164BDA60704729B1144A12690F
:101DD0000243134B1A6104E0114A12698243104B0B
:101DE0001A61704712494039086070470F49C8644A
:101DF00070470B49C87170470948406A40F08070CD
:101E000007494862704701460020054A92680A4027
:101E10000AB1012000E00020704701498872704734
:101E2000001002400000FFF8FFFFF6FE00004242F3
:101E30008004424200127A0000093D003600002072
:101E40004600002010B50446FB48844209D1012118
:101E50008803FFF7ADFF00214FF48040FFF7A8FF94
:101E600032E0F648844209D101214804FFF7ADFF72
:101E700000214FF40030FFF7A8FF25E0F04884422E
:101E800009D101218804FFF7A0FF00214FF4802031
:101E9000FFF79BFF18E0EB48844209D10121C804F9
:101EA000FFF793FF00214FF40020FFF78EFF0BE0B8
:101EB000E548844208D101210805FFF786FF00218B
:101EC0004FF48010FFF781FF10BD2DE9F04786B079
:101ED00005460E460024A24600BFA1460027B08951
:101EE00000B100BF2F462C8A4CF6FF700440F088EA
:101EF00004432C82AC894EF6F3100440B08831893B
:101F00000843718908430443AC81AC8A4FF6FF4013
:101F10000440B0890443AC8201A8FFF7C2FEC64862
:101F2000874202D1DDF810A001E0DDF80CA0A889FD
:101F300000F4004040B10AEBCA0000EB0A1031681F
:101F40004900B0FBF1F807E00AEBCA0000EB0A1009
:101F500031688900B0FBF1F86420B8FBF0F00401AF
:101F60002009642101FB1089A88900F4004040B1D8
:101F7000322000EBC900B0FBF1F000F00700044391
:101F800008E0322000EB09106421B0FBF1F000F012
:101F90000F0004432C8106B0BDE8F0874FF41651C2
:101FA000016000218180C18001810C2141810021DB
:101FB0008181704710B502460020108A4FF2FF035E
:101FC00018400B884C8823438C882343CC882343B8
:101FD0001843108210BD0021018041808180C180A2
:101FE000704721B1828942F40052828104E08289E3
:101FF0004DF6FF731A4082817047F0B50346002406
:1020000000260025002040F66A17B94200D100BF23
:102010001846C1F3421401F01F06012707FA06F51E
:10202000012C01D10C3004E0022C01D1103000E071
:1020300014301AB107682F43076002E00768AF4306
:102040000760F0BD1AB1838A0B43838202E0838A62
:102050008B4383827047028A4FF6F0731A400282E4
:10206000028A0A430282704782894FF2FF731A4044
:10207000828182890A438281704721B1828942F03C
:102080000202828104E082894FF6FD731A40828148
:102090007047028A4FF6DF731A400282028A0A43AF
:1020A0000282704721B1028A42F48042028204E037
:1020B000028A4BF6FF731A4002827047C1F308028E
:1020C0008280704701468888C0F308007047818984
:1020D00041F0010181817047028BD2B20283028BF1
:1020E00042EA012202837047028B02F47F4202839C
:1020F000028B0A430283704721B1828A42F0200298
:10210000828204E0828A4FF6DF731A40828270472F
:1021100021B1828A42F01002828204E0828A4FF664
:10212000EF731A408282704721B1828A42F008021E
:10213000828204E0828A4FF6F7731A4082827047E7
:1021400021B1828942F40042828103E08289C2F394
:102150000E028281704721B1828A42F4006282823B
:1021600004E0828A4FF2FF731A4082827047828AAB
:102170004FF6FB731A408282828A0A43828270473A
:1021800021B1828A42F00202828204E0828A4FF602
:10219000FD731A408282704702460020B1F5007F2D
:1021A00000D100BF13880B400BB1012000E00020DC
:1021B000704701F40072B2F5007F00D100BFCA433E
:1021C0000280704770B502460024002300250020DD
:1021D00040F66A16B14200D100BFC1F3421501F0CA
:1021E0001F03012606FA03F3012D02D1968933401D
:1021F00006E0022D02D1168A334001E0968A334070
:102200000C12012606FA04F41688344013B10CB1FE
:10221000012000E0002070BD10B50022002340F630
:102220006A14A14200D100BF0A1201249440A3B253
:10223000DC43048010BD0000003801400044004031
:1022400000480040004C004000500040314901432C
:10225000314A1160704770B5002100230F22C47805
:1022600004B32D4C246804F4E064C4F5E064210A4E
:10227000C1F10403CA40447804FA03F1847814409D
:1022800021430901254C0678A155047804F01F0567
:102290000124AC4005786D11AD0005F1E025C5F8CD
:1022A000004109E0047804F01F050124AC401C4DF6
:1022B0000678761145F8264070BD1A4A0A40024356
:1022C000154B1B1F1A60704739B1134A121D126853
:1022D0000243114B1B1D1A6006E00F4A121D1268C3
:1022E00082430D4B1B1D1A607047042808D14FF024
:1022F000E021096941F004014FF0E022116107E09B
:102300004FF0E021096921F004014FF0E022116152
:10231000704700000000FA050CED00E000E400E06A
:1023200080E100E080FFFF1F10B50446FE488442B4
:1023300008D10121C014FFF73BFD0021E014FFF795
:1023400037FDC4E0B4F1804F08D101210846FFF702
:102350003CFD00210120FFF738FDB8E0F34884423E
:1023600008D101210220FFF730FD00210220FFF7F4
:102370002CFDACE0EE48844208D101210420FFF797
:1023800024FD00210420FFF720FDA0E0E94884425D
:1023900008D101210820FFF718FD00210820FFF7D0
:1023A00014FD94E0E448844208D101211020FFF795
:1023B0000CFD00211020FFF708FD88E0DF48844273
:1023C00008D101212020FFF700FD00212020FFF788
:1023D000FCFC7CE0DA48844208D101214014FFF77C
:1023E000E7FC00216014FFF7E3FC70E0D54884426D
:1023F00009D10121C804FFF7DBFC00214FF40020C4
:10240000FFF7D6FC63E0D048844209D101210805DA
:10241000FFF7CEFC00214FF48010FFF7C9FC56E017
:10242000CA48844209D101214805FFF7C1FC0021B7
:102430004FF40010FFF7BCFC49E0C548844208D1C6
:1024400001214020FFF7C1FC00214020FFF7BDFC27
:102450003DE0C048844208D101218020FFF7B5FC4F
:1024600000218020FFF7B1FC31E0BB48844208D155
:1024700001218015FFF7A9FC0021A015FFF7A5FC9D
:1024800025E0B648844209D101210804FFF790FCF9
:1024900000214FF48030FFF78BFC18E0B0488442F5
:1024A00009D101214804FFF783FC00214FF40030DB
:1024B000FFF77EFC0BE0AB48844208D10121880481
:1024C000FFF776FC00214FF48020FFF771FC10BD70
:1024D00000220288944B98420ED0994B98420BD020
:1024E000B0F1804F08D0914B984205D0904B984264
:1024F00002D0904B984204D14FF68F731A404B880C
:102500001A438D4B984207D08C4B984204D04FF61B
:10251000FF431A40CB881A4302808B8883850B883F
:102520000385814B98420BD0854B984208D08B4B4A
:10253000984205D08A4B984202D08A4B984201D1EA
:102540000B7A038601238382704770B50024002232
:102550000023058C4FF6FE7635400584028C838877
:10256000048B4FF68F752C40B51E2C400D882C43E4
:10257000751E2A400D892A434D882A436A4DA84278
:102580000BD06F4DA84208D0744DA84205D0744DB1
:10259000A84202D0734DA84213D14FF6F7752A40D6
:1025A0004D892A434FF6FB752A408D882A434FF602
:1025B000FF652B404FF6FF552B408D892B43CD896E
:1025C0002B4383800483CD888586028470BD70B5DB
:1025D000002400220023058C4FF6EF763540058459
:1025E000028C8388048B48F6FF752C404FF6FF451C
:1025F0002C400D884FF6FF7606EA05252C434FF652
:10260000DF752A400D8906EA05152A434D8806EA3A
:1026100005152A43444DA84202D0494DA8421DD178
:102620004FF67F752A404D894FF6FF7606EA05156D
:102630002A434FF6BF752A408D8806EA05152A43BE
:102640004FF6FF352B404FF2FF752B408D8906EA80
:1026500085052B43CD8906EA85052B4383800483BA
:10266000CD880587028470BD70B500240022002348
:10267000058C4FF6FF6635400584028C8388848B79
:102680004FF68F752C404FF6FC752C400D882C436F
:102690004FF6FF552A400D894FF6FF7606EA0525CD
:1026A0002A434D8806EA05252A431F4DA84202D039
:1026B000234DA8421DD14FF2FF752A404D894FF698
:1026C000FF7606EA05252A434FF6FF352A408D8816
:1026D00006EA05252A434EF6FF752B404DF6FF7599
:1026E0002B408D8906EA05152B43CD8906EA051591
:1026F0002B4383808483CD888587028470BD70B529
:10270000002200230024058C4EF6FF763540058418
:10271000038C8488828B48F6FF752A404FF6FF456C
:102720002A400D8820E00000002C014000040040F9
:1027300000080040000C0040001000400014004061
:1027400000340140004C0140005001400054014061
:1027500000180040001C00400020004000400140E4
:1027600000440140004801404FF6FF7606EA052587
:102770002A434DF6FF752B400D8906EA05352B439C
:102780004D8806EA05352B43FA4DA84202D0FA4D92
:10279000A84208D14BF6FF752C408D894FF6FF7685
:1027A00006EA85152C4384808283CD88A0F84050AA
:1027B000038470BD828B4FF2FF331A408283828B79
:1027C0004FF6FF7303EA01231A4382837047F0B583
:1027D0000C461546002200210026078C4EF6FF7C91
:1027E00007EA0C070784828B018C4FF6FF7707EA14
:1027F000043640F6FF473A404FF6FF7707EA0527D1
:102800003A434FF6FF7707EA03373A43D94FB842C6
:102810000ED0D94FB8420BD0B0F1804F08D0D74F6F
:10282000B84205D0D64FB84202D0D64FB84206D1F2
:102830004DF6FF77394046F48057394305E047F6B7
:10284000FF57394044F48057394382830184F0BDF7
:10285000828B4FF6F3731A408283828B0A43828302
:102860007047F0B50C461546002200210026078C63
:102870004FF6FF6C07EA0C070784828B018C4FF63A
:10288000FF7707EA04264FF60C773A404FF6FF77BA
:1028900007EA03172F433A43B64FB8420ED0B64F5C
:1028A000B8420BD0B0F1804F08D0B44FB84205D039
:1028B000B34FB84202D0B34FB84206D14FF6FF57DC
:1028C000394046F48077394305E04FF2FF573940ED
:1028D00044F48077394382830184F0BD028B4FF248
:1028E000FF331A400283028B4FF6FF7303EA012382
:1028F0001A4302837047F0B50C46154600220021AA
:102900000026078C4FF6EF7C07EA0C070784028B42
:10291000018C4FF6FF7707EA041640F6FF473A406E
:102920004FF6FF7707EA03373A434FF6FF7707EA98
:1029300005273A438F4FB8420ED08F4FB8420BD085
:10294000B0F1804F08D08D4FB84205D08C4FB842BF
:1029500002D08C4FB84206D14FF6DF77394046F0AF
:102960001007394305E04FF65F77394044F0100710
:10297000394302830184F0BD028B4FF6F3731A4092
:102980000283028B0A4302837047F0B50C4615465A
:1029900000220021068C4FF6FE773E400684028B13
:1029A000018C4FF60C7632407E1C06EA03162E434D
:1029B0003243704EB0420ED06F4EB0420BD0B0F1E9
:1029C000804F08D06D4EB04205D06D4EB04202D05F
:1029D0006C4EB04206D14FF6FD76314044F0010610
:1029E000314305E04FF6F576314044F001063143BE
:1029F00002830184F0BD70B505460C465D488542F2
:102A00000ED05D4885420BD0B5F1804F08D05B48B1
:102A1000854205D05A48854202D05A48854200D1A5
:102A200000E000BF208850B92389A2886188284629
:102A3000FFF7ABFFE1882846FFF79EFF25E02088DF
:102A400004280AD12389A28861882846FFF753FF0A
:102A5000E1882846FFF742FF17E0208808280AD1BE
:102A60002389A28861882846FFF7FBFEE188284673
:102A7000FFF7EEFE09E02389A28861882846FFF768
:102A8000A6FEE1882846FFF795FE70BD2DE9F041CE
:102A900005460C4600260127608808B9022600E09A
:102AA0000026A088012801D1022700E00127208804
:102AB000A0B92389A28861882846FFF766FFE188CC
:102AC0002846FFF759FF23893A4631462846FFF743
:102AD00012FFE1882846FFF701FF13E02389A2884F
:102AE00061882846FFF707FFE1882846FFF7F6FED2
:102AF00023893A4631462846FFF747FFE1882846B2
:102B0000FFF73AFFBDE8F0810A884B881A438B88AB
:102B10001A43CB881A430B891A434B891A438B8972
:102B20001A43A0F8442070474FF6FF7181800021BE
:102B30000180C18041800172704700210180418085
:102B40008180C180018141818181C18170470021E3
:102B500001804180012181800021C1800181704775
:102B60000021018041808180C1800181418181817A
:102B700070470000002C0140003401400004004078
:102B800000080040000C004021B1028842F0010220
:102B9000028004E002884FF6FE731A4002807047FC
:102BA00031B1B0F8442042F40042A0F8442005E0DE
:102BB000B0F84420C2F30E02A0F8442070471AB1C6
:102BC00083890B43838102E083898B438381704730
:102BD0008182704741EA0203A0F8483070471AB179
:102BE00083890B43838102E083898B438381704710
:102BF00001894FF6F8721140018170470A460021A1
:102C000001894FF68F73194011430181704730B528
:102C100004460D4629462046FFF7F0FF208940F084
:102C20000700208130BD2DE9F04104460D461646CF
:102C30001F46602D06D13B46012231462046FFF754
:102C40005AFE05E03B46012231462046FFF79DFE35
:102C500029462046FFF7D2FF208940F00700208157
:102C6000BDE8F08130B50C4600210189C9B24FF6AC
:102C7000FF7505EA0325154325432943018130BD2E
:102C80002DE9F04105460E46174698460024434676
:102C90003A4631462846FFF7E5FF2C894FF6F87093
:102CA000044044F007044FF68F70044044F0700471
:102CB0002C81BDE8F081F0B504460D4616461F464E
:102CC0003B46324629462046FFF7CCFF208940F498
:102CD00080402081F0BD0185828270470A46002134
:102CE00001884FF68F731940114301807047F0B58A
:102CF0000C4615461E460021002200230189028B46
:102D0000038C4FF6F877394021434FF6FC473A40A1
:102D100040F201173A434FF6DD773B404FF6FF771D
:102D200007EA06172F433B43018102830384F0BD6A
:102D30000A460021018B4FF68F731940114301831E
:102D400070470A460021018B48F6FF7319404FF681
:102D5000FF7303EA02231943018370470A460021E7
:102D6000818B4FF68F7319401143818370470A4658
:102D70000021818B48F6FF7319404FF6FF7303EA79
:102D8000022319438183704721B1028842F08002F7
:102D9000028004E002884FF67F731A400280704779
:102DA00021B1828842F00402828004E082884FF6DA
:102DB000FB731A408280704721B1828842F008027A
:102DC000828004E082884FF6F7731A408280704751
:102DD00021B1828842F00102828004E082884FF6AD
:102DE000FE731A40828070470A460021018B4FF61D
:102DF000F77319401143018370470A460021018B84
:102E00004FF2FF7319404FF6FF7303EA0223194391
:102E1000018370470A460021818B4FF6F7731940F2
:102E20001143818370470A460021818B4FF2FF7363
:102E300019404FF6FF7303EA022319438183704759
:102E40000A460021018B4FF6FB73194011430183A1
:102E500070470A460021018B4FF6FF3319404FF6A9
:102E6000FF7303EA02231943018370470A460021D6
:102E7000818B4FF6FB7319401143818370470A46DB
:102E80000021818B4FF6FF3319404FF6FF7303EAA1
:102E900002231943818370470A460021018B4FF6B4
:102EA0007F7319401143018370470A460021018B4B
:102EB000C1F30E014FF6FF7303EA022319430183A6
:102EC00070470A460021818B4FF67F7319401143EA
:102ED000818370470A460021818BC1F30E014FF6B2
:102EE000FF7303EA02231943818370470A460021D6
:102EF000018C4FF6FD7319401143018470470A4657
:102F00000021018C4FF6F77319401143018470477B
:102F10000A460021018C4FF6DF7319404FF6FF730C
:102F200003EA02131943018470470A460021018C09
:102F30004FF67F7319404FF6FF7303EA02131943EC
:102F4000018470470A460021018C4FF6FF53194057
:102F50004FF6FF7303EA02231943018470470A46C0
:102F60000021018C4FF2FF7319404FF6FF7303EA03
:102F700002231943018470470A460021018C4DF653
:102F8000FF7319404FF6FF7303EA023319430184BC
:102F9000704730B5002301248C40A3B2048C9C43BD
:102FA0000484048C02FA01F5ADB22C43048430BDD4
:102FB00030B5002304248C40A3B2048C9C430484C9
:102FC000048C02FA01F5ADB22C43048430BD70B517
:102FD0000346002000241846183001258D40ACB26D
:102FE0001D8CA5431D8409B1082909D100EB61009E
:102FF000056825F0700505600568154305600EE05D
:103000000D1FC5F34E052844056825F4E04505600D
:1030100005684FF6FF7606EA02263543056070BD67
:1030200021B1028842F00202028004E002884FF6D9
:10303000FD731A400280704721B1028842F00402F9
:10304000028004E002884FF6FB731A40028070474A
:1030500021B1828842F08002828004E082884FF6AB
:103060007F731A408280704702884FF6F7731A40C8
:10307000028002880A430280704782884FF68F736D
:103080001A40828082880A438280704702894FF604
:10309000F8731A40028102890A430281704702894B
:1030A0004FF67F731A40028102890A4302817047FA
:1030B000818470478185704781867047018770479A
:1030C00081877047A0F84010704702884FF6FF4391
:1030D0001A40028002880A43028070470146888EA7
:1030E00070470146088F70470146888F7047014638
:1030F000B1F8400070470146888C70470146088D42
:10310000704702460020138A0B400BB1012000E0FB
:1031100000207047CA430282704730B50246002043
:1031200000230024158A05EA0103958905EA0104B4
:1031300013B10CB1012000E0002030BDCA4302826F
:103140007047000001684FF6FE72114001600021D7
:10315000016041608160C1608D49884208D18C491D
:103160000839496841F00F01894A083A51608AE0FC
:1031700087491431884208D185490839496841F0A6
:10318000F001834A083A51607DE081492831884244
:1031900008D17F490839496841F470617C4A083A8E
:1031A000516070E07A493C31884208D17849083949
:1031B000496841F47041764A083A516063E07449C5
:1031C0005031884208D172490839496841F4702168
:1031D0006F4A083A516056E06D496431884208D11F
:1031E0006B490839496841F47001694A083A5160ED
:1031F00049E067497831884208D16549083949680A
:1032000041F07061624A083A51603CE0614988428D
:1032100006D1011F096841F00F01021F116032E061
:103220005C491431884208D15A49091F096841F0A4
:10323000F001584A121F116025E056492831884292
:1032400008D15449091F096841F47061514A121F9D
:10325000116018E04F493C31884208D14D49091F9F
:10326000096841F470414B4A121F11600BE0494953
:103270005031884207D14749091F096841F470213C
:10328000444A121F1160704710B50022026847F6C9
:10329000F0739A430C6A8B6823430C6923434C698F
:1032A00023438C692343CC6923434C6A23438C6AB0
:1032B00023431A430260CB6843600B6883604B680A
:1032C000C36010BD0021016041608160C160016187
:1032D00041618161C161016241628162704721B1D6
:1032E000026842F00102026004E002684FF6FE73D9
:1032F0001A40026070471AB103680B43036002E092
:1033000003688B430360704741607047014648681B
:1033100080B2704701460020002201F080531BB1AB
:103320001C4B083B1A6802E0194B083B1A6802EA7A
:1033300001030BB1012000E00020704700F0805134
:1033400019B11449091F086002E0114908394860A1
:10335000704701460020002201F080531BB10D4B45
:10336000083B1A6802E00A4B083B1A6802EA0103AC
:103370000BB1012000E00020704700F0805119B12E
:103380000449091F086002E0014908394860704794
:10339000080002400804024070474FF00002042970
:1033A000C0F0128010F0030C00F01F80CCF1040C70
:1033B000BCF1020F18BF00F8012BA8BF20F8022BA8
:1033C000A1EB0C0100F011B85FEAC17C24BF00F84A
:1033D000012B00F8012B48BF00F8012B7047704704
:1033E0007047704770474FF0000200B5134694468F
:1033F0009646203922BFA0E80C50A0E80C50B1F14D
:103400002001BFF4F7AF090728BFA0E80C5048BF60
:103410000CC05DF804EB890028BF40F8042B08BFFE
:10342000704748BF20F8022B11F0804F18BF00F8FA
:10343000012B7047754600F02BF8AE460500694633
:10344000534620F00700854618B020B5FEF768F90E
:10345000BDE820404FF000064FF000074FF0000895
:103460004FF0000B21F00701AC46ACE8C009ACE816
:10347000C009ACE8C009ACE8C0098D46704710B57A
:103480000446AFF300802046BDE81040FCF797BE2D
:1034900000487047B400002010B591EA030F48BF00
:1034A00083F0004300F1C283841A71EB030C05D250
:1034B000121943EB0C03001B61EB0C01DFF824E154
:1034C0004FEA1154A4EB135C1EEA430F18BF9EEAA7
:1034D000445F73D023EA0E03DCF1200E21EA04518D
:1034E00043F4801332D322FA0CFE10EB0E0023FAC1
:1034F0000CFE41EB0E01CCF1200E03FA0EFE10EB98
:103500000E0051F10001B1F5801FCCF1200E32D236
:1035100001EB045112FA0EF2BDE8104058BF70479B
:10352000401C38BF5FEA420218BF7047002814BF32
:1035300020F0010041F100014FEA410313F5001FA3
:1035400038BF7047A1F1C04100F02CBB012A43EB0A
:103550000302ACF1200CDCF11F0E32BF4FF0000E65
:1035600023FA0CF310EB030041EB0451B4EB115FB1
:10357000D0D0A1EB045101F5801149085FEA300079
:1035800001EB04510ED350F1000038BF12FA0EFEC9
:1035900008D1BDE81040C9E7401C38BF5FEA4202CD
:1035A000CAD1C3E7BDE810404FEA410313F5001F3D
:1035B00038BF7047A1F1C04100F0F4BA9EEA445F01
:1035C00008D011EA5E0FBDE8104004BF01F00041D1
:1035D00000207047BDE8104070B500F095FA00BFBC
:1035E00064FBBE3E0000E0FF491058BFC1F14041FE
:1035F0005B1058BFC3F140438B42EFF3008070472C
:103600002DE9C04130B4DFF8A0C23CEA111418BF64
:103610003CEA131400F0EC8081EA03051CEA111463
:1036200044EAD57418BF1CEA131500F0C780A4EB58
:1036300005044FF0004545EAC12145EAC32341EAAC
:10364000505143EA525304F17F74994204F5003417
:103650004FEAC0204FEAC22208BF904200F09C808F
:103660004FEA13650FF24016765D4FEA134506FBED
:1036700005F7C7F1807706FB07F74FEAD737A7FBB7
:1036800003687642C8F58038A7FB06CE38BFA8F19C
:10369000010807FB08E64FF0000EA6FB028CE6FBD4
:1036A00003CEDCF1000CCEF1004E38BFAEF1010EBE
:1036B000A6FB0C584FF000074FF00005E6FB0E8705
:1036C000A1FB08C6A0FB07CE16EB0E0645F10005D0
:1036D000E1FB076515F1E04E7EBFA4F580345FEA9B
:1036E00046066D4116F1800745F100054FEA1727A0
:1036F0004FEA066647EA0567A6F1DE46B6F1805F47
:103700004FEA15251FD9384624F0010C05EBC4718A
:10371000BCF1FE6F01EB0C1102D8F0BCBDE80081DA
:1037200024425CBF01F5801E9EEAC47F02D4F0BC37
:10373000BDE80081244238D4F0BCA1F1C041BDE80D
:10374000004100F02FBA4FEAD22242EA43524FEA38
:10375000D323A7FB02864FEAD02040EA415007FB63
:1037600003661EEA0E0F4FEAD12105FB026658BF21
:10377000A6EB0056B6EB00564FEA520E4EEAC37E59
:1037800018EB0E0E56EB530EBDD518EB02085E413A
:103790007F1C55F10005B6E74FF480154FF0000788
:1037A0004FF000064FF00008ADE7F0BC4FF000000E
:1037B00001F1C04101F00041BDE8008111EA0C1F98
:1037C0000CEA131500D00CE013EA0C1F00F0258062
:1037D0004FF00000F0BC81EA030101F00041BDE8B8
:1037E0000081F0BCBDE8004181EA030100F0DAB9D4
:1037F000F0BCBDE8004170B500F086F9097EFC3EE2
:1038000000F007B881EA03014FF0000001F0004129
:10381000704781EA030100F0C5B9F0BCBDE8004182
:103820004FF0000021497047FFFDFBF9F7F5F4F276
:10383000F0EEEDEBE9E8E6E4E3E1E0DEDDDBDAD84B
:10384000D7D5D4D3D1D0CFCDCCCBCAC8C7C6C5C4A9
:10385000C2C1C0BFBEBDBCBBBAB9B8B7B6B5B4B3C0
:10386000B2B1B0AFAEADACABAAA9A8A8A7A6A5A4AB
:10387000A3A3A2A1A09F9F9E9D9C9C9B9A9999986F
:103880009797969595949393929191908F8F8E8E12
:103890008D8C8C8B8B8A898988888787868585849F
:1038A00084838382828181800000FF070000F87F8B
:1038B0004FEA41034FEA5353A3F58063D3F11E034C
:1038C000C8BFD3F1210C0CDD4FF0004242EAC12207
:1038D00042EA505232FA03FC8CEAE17CACEBE17034
:1038E0007047102BC4BF0020704703F5787CBCF1F3
:1038F000FF3F04D06FF0004282EA2100704770B5AC
:1039000000F002F94992248000207047F2E710F09D
:10391000004248BF4042B0FA80F310FA03F10AD0E7
:10392000C3F11D0303F580634FEA415002EB0352DC
:1039300002EBD12170474FF00000704751EA030CB1
:1039400017D41CF5801F58BFBCF5801F00F10680FE
:10395000994218BF704708BF9042704707D711F5CA
:10396000801F58BF13F5801F19D4994270478942B0
:1039700070471CF5801F08D5BCF5801FF7D58B421A
:1039800018BF704708BF824270474FF4001C1CEB01
:10399000410F38BF1CEB430F01D28B42704770B50B
:1039A00000F0B2F8922449004FF000514FF08053DC
:1039B000FFF71ABEDFF848C170B51CEA111E1EBF22
:1039C0001CEA13159EEA0C0F95EA0C0F00F06F80AD
:1039D00081EA030423EA4C134EEAD47E21EA4C1117
:1039E00041F4801143F48013AE44A1FB024CA0FBD0
:1039F0000365AEF17F7E361955EB0C05A1FB034C38
:103A00004CF10003A0FB021C16EB0C06654153F1C0
:103A10000003094218BF46F0010613F4007F0BD1E2
:103A20004FEA03314FEA0530340341EA155140EAC9
:103A300016506FF003020AE04FEAC3214FEAC52097
:103A4000F40241EA555140EA56506FF0020202EB8F
:103A50002E4201EB025585EACE710AD05FEA440C92
:103A600018BF24F0004450F1000041F1000120EAA9
:103A7000D47040F2FE7C624500D270BDA84214BFF3
:103A80004FF080444FF04044002E08BF0024BEF1A8
:103A9000806FA8BFA1F1C041BDE8704080F2828074
:103AA0004FF0000001F1C04101F0004170479EEA73
:103AB0000C0F0CEA131518BF95EA0C0F06D04FF047
:103AC000000081EA030E0EF0004170BD00F01CF80A
:103AD0008900013E00F007B800F009B84FEA430C36
:103AE0005FEA5C5C08D081EA030100F05BB84FEA52
:103AF000410C5FEA5C5CF6D14FF000000149704771
:103B00000000FF070000F87F0EF1020E2EF0030EFA
:103B10005EF8046B364205D4012A43EB030515F524
:103B2000001F12D8012841EB010C1CF5001F0CD816
:103B30000ED14FEAD17C15F5001F0CEB4C0C0CF1AB
:103B4000020C08BF4CEBD37C04E04FF0080C01E002
:103B50004FEAD37C0CEB4C0526FA05F606F0070677
:103B6000B6F1040C06D20EEB860CBDE870404CF0AA
:103B7000010C6047DFE80CF0090B02024FF0004136
:103B80004FF00000A1F5002170BD19461046012834
:103B900051EB010418BFD4F5001484BF002001F0DC
:103BA000004170BD0808A0F500114FEA31017047CF
:103BB00053EA010C17D41CF5801F58BFBCF5801FB9
:103BC00000F106808B4218BF704708BF82427047E1
:103BD00007D713F5801F58BF11F5801F19D48B42EA
:103BE00070479B4270471CF5801F08D5BCF5801FAD
:103BF000F7D5994218BF704708BF904270474FF4FD
:103C0000001C1CEB430F38BF1CEB410F01D2994243
:103C100070470FB40CBC03BCFFF7C1BE10B591EAEE
:103C2000030F48BF83F000433FF53EAC841A71EBAD
:103C3000030C07D212198CF0004C43EB0C03001B51
:103C400061EB0C01DFF8A4E14FEA1154A4EB135C23
:103C50001EEA430F18BF9EEA445F00F0B08023EADB
:103C60006E03524221EA0451C3EB6E0338BF5B1E60
:103C7000DCF1200E25D322FA0CFE10EB0E0043FAE5
:103C80000CFE41EB0E01CCF1200E03FA0EFE10EB00
:103C90000E0051F10001CCF1200E29D412FA0EF2DF
:103CA00001EB0451BDE8104058BF7047401C1CBFD9
:103CB000B2F1004F704700280CBF491C20F00100F2
:103CC000704712EB020E43EB030218BF4FF0010ED8
:103CD0004EEA4202ACF1200CDCF11E0E54D943FA3C
:103CE0000CFE10EB0E0051F1FF31CCF11E0ED5D5BC
:103CF0000EF1010E12FA0EFE404141EB010101EB03
:103D0000445C5FEA5C5C10D910EBDE7001EB04519F
:103D100038BFBEF1004FBDE8104018BF7047002803
:103D20000CBF491C20F00100704730D24FEAD42C60
:103D300011F5001124F400641BD0B1FA81F20B3AA2
:103D4000A41AA41ED2F12003914030FA03F31943C0
:103D5000904001EBCC71002C01EB0451BDE8104008
:103D6000A8BF704701F1C0414FF0000001F00041D1
:103D70007047B0FA80F310FA03F100D110BDE41AD5
:103D8000173C4805C90AE4E701EB045110BD49108E
:103D900001EB0451BDE810404FEA300002E04FF063
:103DA000000170474A0008BF0042F8D0B2F5001F7A
:103DB00028BF704701F000414FF0000070479EEAB5
:103DC000445F07D011EA5E0FBDE8104004BF002138
:103DD00000207047BDE8104070B5FFF795FE00BFAA
:103DE00040DFF63E83F00041104670470000E0FFE0
:103DF00041000B0ED3F19E0208D950F400034FEAA4
:103E0000032323FA02F048BF4042704710B500F088
:103E1000A4F800BF49922480002070476FF0004250
:103E200082EA20007047000010F0004148BF404285
:103E3000B0FA80F310FA03F2C3F19D030BD051EAFC
:103E4000C35101EB1220530638BF704700F1010047
:103E500008BF20F0010070474FF47F0C1CEAD0121D
:103E60001EBF1CEAD11392EA0C0F93EA0C0F00F06C
:103E7000478090EA010F48BF42F480724FF0004C37
:103E80004CEA00204CEA012102EB0302A0FB0113E3
:103E9000A2F50002002918BF43F001035B0028BF10
:103EA0004FEA330342EB22425FEA132C4CEBC25041
:103EB0002EBFBCEB436FB2F57C0F70474FEA036C2B
:103EC000BCF1004F08BF20F00100B2F57C0F38BFF5
:103ED00070470BD582F0FF0212F5803FC8BF7047D4
:103EE00000F1C040D8BF00F00040704700F5000C62
:103EF0005FEA4C0C48BF7047B0F1C04000F073B8A7
:103F000090EA010F0CEAD11348BF42F48072624577
:103F100038BF634504D280EA010000F000407047DA
:103F200010B500F01AF800BF8900013E00F007B894
:103F300000F009B85FEA410C5FEA1C6C08D080EA27
:103F4000010000F050B85FEA400C5FEA1C6CF6D14B
:103F50004FF00040A0F5800070470EF1020E2EF0E9
:103F6000030E5EF8044B244204D44FEA4102B2F13E
:103F70007F4F11D84FEA4003B3F17F4F0CD80ED1D9
:103F80004FEAD07CB2F17F4F0CEB4C0C0CF1020CE1
:103F900008BF4CEBD17C04E04FF0080C01E04FEA85
:103FA000D17C0CEB4C0324FA03F404F00704B4F1C5
:103FB000040C06D20EEB840CBDE810404CF0010C52
:103FC0006047DFE80CF0070802024FF00040A0F560
:103FD000800010BD0846420018BFD2F1807288BF31
:103FE00000F0004010BDFF2141EAD050C0057047ED
:103FF00010400008000000204C0000006C01000888
:104000005C4000084C000020CC060000880100083D
:104010000000000000A24A040000000000000000B0
:104020000102030406070809000000000100010066
:10403000010001000000000001000000000000007D
:104040000100000000000000000001020304010262
:0C4050000304060708090204060800002B
:0400000508000131BD
:00000001FF
